{
  "_format": "hh-sol-artifact-1",
  "contractName": "TokenExchange",
  "sourceName": "contracts/exchange.sol",
  "abi": [
    {
      "inputs": [],
      "stateMutability": "nonpayable",
      "type": "constructor"
    },
    {
      "anonymous": false,
      "inputs": [
        {
          "indexed": true,
          "internalType": "address",
          "name": "previousOwner",
          "type": "address"
        },
        {
          "indexed": true,
          "internalType": "address",
          "name": "newOwner",
          "type": "address"
        }
      ],
      "name": "OwnershipTransferred",
      "type": "event"
    },
    {
      "inputs": [
        {
          "internalType": "uint256",
          "name": "min_exchange_rate",
          "type": "uint256"
        },
        {
          "internalType": "uint256",
          "name": "max_exchange_rate",
          "type": "uint256"
        }
      ],
      "name": "addLiquidity",
      "outputs": [],
      "stateMutability": "payable",
      "type": "function"
    },
    {
      "inputs": [
        {
          "internalType": "uint256",
          "name": "amountTokens",
          "type": "uint256"
        }
      ],
      "name": "createPool",
      "outputs": [],
      "stateMutability": "payable",
      "type": "function"
    },
    {
      "inputs": [],
      "name": "exchange_name",
      "outputs": [
        {
          "internalType": "string",
          "name": "",
          "type": "string"
        }
      ],
      "stateMutability": "view",
      "type": "function"
    },
    {
      "inputs": [],
      "name": "getReserves",
      "outputs": [
        {
          "internalType": "uint256",
          "name": "",
          "type": "uint256"
        },
        {
          "internalType": "uint256",
          "name": "",
          "type": "uint256"
        }
      ],
      "stateMutability": "view",
      "type": "function"
    },
    {
      "inputs": [],
      "name": "getSwapFee",
      "outputs": [
        {
          "internalType": "uint256",
          "name": "",
          "type": "uint256"
        },
        {
          "internalType": "uint256",
          "name": "",
          "type": "uint256"
        }
      ],
      "stateMutability": "view",
      "type": "function"
    },
    {
      "inputs": [],
      "name": "owner",
      "outputs": [
        {
          "internalType": "address",
          "name": "",
          "type": "address"
        }
      ],
      "stateMutability": "view",
      "type": "function"
    },
    {
      "inputs": [
        {
          "internalType": "uint256",
          "name": "min_exchange_rate",
          "type": "uint256"
        },
        {
          "internalType": "uint256",
          "name": "max_exchange_rate",
          "type": "uint256"
        }
      ],
      "name": "removeAllLiquidity",
      "outputs": [],
      "stateMutability": "payable",
      "type": "function"
    },
    {
      "inputs": [
        {
          "internalType": "uint256",
          "name": "amountETH",
          "type": "uint256"
        },
        {
          "internalType": "uint256",
          "name": "min_exchange_rate",
          "type": "uint256"
        },
        {
          "internalType": "uint256",
          "name": "max_exchange_rate",
          "type": "uint256"
        }
      ],
      "name": "removeLiquidity",
      "outputs": [],
      "stateMutability": "payable",
      "type": "function"
    },
    {
      "inputs": [],
      "name": "renounceOwnership",
      "outputs": [],
      "stateMutability": "nonpayable",
      "type": "function"
    },
    {
      "inputs": [
        {
          "internalType": "uint256",
          "name": "max_exchange_rate",
          "type": "uint256"
        }
      ],
      "name": "swapETHForTokens",
      "outputs": [],
      "stateMutability": "payable",
      "type": "function"
    },
    {
      "inputs": [
        {
          "internalType": "uint256",
          "name": "amountTokens",
          "type": "uint256"
        },
        {
          "internalType": "uint256",
          "name": "max_exchange_rate",
          "type": "uint256"
        }
      ],
      "name": "swapTokensForETH",
      "outputs": [],
      "stateMutability": "payable",
      "type": "function"
    },
    {
      "inputs": [],
      "name": "token",
      "outputs": [
        {
          "internalType": "contract Token",
          "name": "",
          "type": "address"
        }
      ],
      "stateMutability": "view",
      "type": "function"
    },
    {
      "inputs": [
        {
          "internalType": "address",
          "name": "newOwner",
          "type": "address"
        }
      ],
      "name": "transferOwnership",
      "outputs": [],
      "stateMutability": "nonpayable",
      "type": "function"
    }
  ],
  "bytecode": "0x60806040526040518060400160405280600581526020017f46756e5478000000000000000000000000000000000000000000000000000000815250600190816200004a9190620004a7565b50735fbdb2315678afecb367f032d93f642f64180aa3600260006101000a81548173ffffffffffffffffffffffffffffffffffffffff021916908373ffffffffffffffffffffffffffffffffffffffff160217905550600260009054906101000a900473ffffffffffffffffffffffffffffffffffffffff16600360006101000a81548173ffffffffffffffffffffffffffffffffffffffff021916908373ffffffffffffffffffffffffffffffffffffffff16021790555060006004556000600555600060065560006007556000600a556003600b556064600c55620186a0600e553480156200013a57600080fd5b506200015b6200014f6200016160201b60201c565b6200016960201b60201c565b6200058e565b600033905090565b60008060009054906101000a900473ffffffffffffffffffffffffffffffffffffffff169050816000806101000a81548173ffffffffffffffffffffffffffffffffffffffff021916908373ffffffffffffffffffffffffffffffffffffffff1602179055508173ffffffffffffffffffffffffffffffffffffffff168173ffffffffffffffffffffffffffffffffffffffff167f8be0079c531659141344cd1fd0a4f28419497f9722a3daafe3b4186f6b6457e060405160405180910390a35050565b600081519050919050565b7f4e487b7100000000000000000000000000000000000000000000000000000000600052604160045260246000fd5b7f4e487b7100000000000000000000000000000000000000000000000000000000600052602260045260246000fd5b60006002820490506001821680620002af57607f821691505b602082108103620002c557620002c462000267565b5b50919050565b60008190508160005260206000209050919050565b60006020601f8301049050919050565b600082821b905092915050565b6000600883026200032f7fffffffffffffffffffffffffffffffffffffffffffffffffffffffffffffffff82620002f0565b6200033b8683620002f0565b95508019841693508086168417925050509392505050565b6000819050919050565b6000819050919050565b600062000388620003826200037c8462000353565b6200035d565b62000353565b9050919050565b6000819050919050565b620003a48362000367565b620003bc620003b3826200038f565b848454620002fd565b825550505050565b600090565b620003d3620003c4565b620003e081848462000399565b505050565b5b818110156200040857620003fc600082620003c9565b600181019050620003e6565b5050565b601f82111562000457576200042181620002cb565b6200042c84620002e0565b810160208510156200043c578190505b620004546200044b85620002e0565b830182620003e5565b50505b505050565b600082821c905092915050565b60006200047c600019846008026200045c565b1980831691505092915050565b600062000497838362000469565b9150826002028217905092915050565b620004b2826200022d565b67ffffffffffffffff811115620004ce57620004cd62000238565b5b620004da825462000296565b620004e78282856200040c565b600060209050601f8311600181146200051f57600084156200050a578287015190505b62000516858262000489565b86555062000586565b601f1984166200052f86620002cb565b60005b82811015620005595784890151825560018201915060208501945060208101905062000532565b8683101562000579578489015162000575601f89168262000469565b8355505b6001600288020188555050505b505050505050565b613119806200059e6000396000f3fe6080604052600436106100c25760003560e01c80638da5cb5b1161007f578063d4cadf6811610059578063d4cadf68146101dd578063f2fde38b14610209578063f694f7d114610232578063fc0c546a1461025d576100c2565b80638da5cb5b1461017a5780639cd441da146101a5578063a22280a6146101c1576100c2565b80630902f1ac146100c75780632eab2841146100f357806358ad6de41461010f578063715018a61461012b5780638259e6a014610142578063857620e11461015e575b600080fd5b3480156100d357600080fd5b506100dc610288565b6040516100ea929190611e57565b60405180910390f35b61010d60048036038101906101089190611eb1565b610299565b005b61012960048036038101906101249190611ede565b61058b565b005b34801561013757600080fd5b50610140610642565b005b61015c60048036038101906101579190611eb1565b610656565b005b61017860048036038101906101739190611f1e565b610a06565b005b34801561018657600080fd5b5061018f610ebe565b60405161019c9190611fb2565b60405180910390f35b6101bf60048036038101906101ba9190611ede565b610ee7565b005b6101db60048036038101906101d69190611ede565b6113d7565b005b3480156101e957600080fd5b506101f26118d1565b604051610200929190611e57565b60405180910390f35b34801561021557600080fd5b50610230600480360381019061022b9190611ff9565b6118e2565b005b34801561023e57600080fd5b50610247611965565b60405161025491906120b6565b60405180910390f35b34801561026957600080fd5b506102726119f3565b60405161027f9190612137565b60405180910390f35b600080600554600454915091509091565b600034116102dc576040517f08c379a00000000000000000000000000000000000000000000000000000000081526004016102d39061219e565b60405180910390fd5b60006004541180156102f057506000600554115b61032f576040517f08c379a00000000000000000000000000000000000000000000000000000000081526004016103269061220a565b60405180910390fd5b6000600c54600b54346103429190612259565b61034c91906122ca565b90506000813461035c91906122fb565b905060008160055461036e919061232f565b6004548361037c9190612259565b61038691906122ca565b90506000811180156103a557506001816103a0919061232f565b600454115b6103e4576040517f08c379a00000000000000000000000000000000000000000000000000000000081526004016103db906123af565b60405180910390fd5b600082600e54836103f59190612259565b6103ff91906122ca565b905084811115610444576040517f08c379a000000000000000000000000000000000000000000000000000000000815260040161043b9061241b565b60405180910390fd5b8260056000828254610456919061232f565b92505081905550836007600082825461046f919061232f565b92505081905550816004600082825461048891906122fb565b9250508190555060055460045461049f9190612259565b600d81905550600360009054906101000a900473ffffffffffffffffffffffffffffffffffffffff1673ffffffffffffffffffffffffffffffffffffffff1663a9059cbb33846040518363ffffffff1660e01b815260040161050292919061243b565b6020604051808303816000875af1158015610521573d6000803e3d6000fd5b505050506040513d601f19601f82011682018060405250810190610545919061249c565b610584576040517f08c379a000000000000000000000000000000000000000000000000000000000815260040161057b90612515565b60405180910390fd5b5050505050565b6000600860003373ffffffffffffffffffffffffffffffffffffffff1673ffffffffffffffffffffffffffffffffffffffff16815260200190815260200160002054905060008111610612576040517f08c379a000000000000000000000000000000000000000000000000000000000815260040161060990612581565b60405180910390fd5b6000600a54600554836106259190612259565b61062f91906122ca565b905061063c818585610a06565b50505050565b61064a611a19565b6106546000611a97565b565b61065e611a19565b6000600454146106a3576040517f08c379a000000000000000000000000000000000000000000000000000000000815260040161069a906125ed565b60405180910390fd5b6000600554146106e8576040517f08c379a00000000000000000000000000000000000000000000000000000000081526004016106df90612659565b60405180910390fd5b6000341161072b576040517f08c379a0000000000000000000000000000000000000000000000000000000008152600401610722906126c5565b60405180910390fd5b6000600360009054906101000a900473ffffffffffffffffffffffffffffffffffffffff1673ffffffffffffffffffffffffffffffffffffffff166370a08231336040518263ffffffff1660e01b81526004016107889190611fb2565b602060405180830381865afa1580156107a5573d6000803e3d6000fd5b505050506040513d601f19601f820116820180604052508101906107c991906126fa565b90508082111561080e576040517f08c379a000000000000000000000000000000000000000000000000000000000815260040161080590612799565b60405180910390fd5b60008211610851576040517f08c379a000000000000000000000000000000000000000000000000000000000815260040161084890612805565b60405180910390fd5b600360009054906101000a900473ffffffffffffffffffffffffffffffffffffffff1673ffffffffffffffffffffffffffffffffffffffff166323b872dd3330856040518463ffffffff1660e01b81526004016108b093929190612825565b6020604051808303816000875af11580156108cf573d6000803e3d6000fd5b505050506040513d601f19601f820116820180604052508101906108f3919061249c565b50600360009054906101000a900473ffffffffffffffffffffffffffffffffffffffff1673ffffffffffffffffffffffffffffffffffffffff166370a08231306040518263ffffffff1660e01b815260040161094f9190611fb2565b602060405180830381865afa15801561096c573d6000803e3d6000fd5b505050506040513d601f19601f8201168201806040525081019061099091906126fa565b600481905550346005819055506005546004546109ad9190612259565b600d81905550620186a0600a819055506064600860003373ffffffffffffffffffffffffffffffffffffffff1673ffffffffffffffffffffffffffffffffffffffff168152602001908152602001600020819055505050565b600083118015610a17575060055483105b610a56576040517f08c379a0000000000000000000000000000000000000000000000000000000008152600401610a4d906128a8565b60405180910390fd5b610a608282611b5b565b610a9f576040517f08c379a0000000000000000000000000000000000000000000000000000000008152600401610a9690612914565b60405180910390fd5b6000600554600a5485610ab29190612259565b610abc91906122ca565b905080600860003373ffffffffffffffffffffffffffffffffffffffff1673ffffffffffffffffffffffffffffffffffffffff168152602001908152602001600020541015610b40576040517f08c379a0000000000000000000000000000000000000000000000000000000008152600401610b3790612980565b60405180910390fd5b6000600a5460045483610b539190612259565b610b5d91906122ca565b9050600185600554610b6f91906122fb565b1015610bb0576040517f08c379a0000000000000000000000000000000000000000000000000000000008152600401610ba790612a12565b60405180910390fd5b600181600454610bc091906122fb565b1015610c01576040517f08c379a0000000000000000000000000000000000000000000000000000000008152600401610bf890612aa4565b60405180910390fd5b6000600a5460075484610c149190612259565b610c1e91906122ca565b90506000600a5460065485610c339190612259565b610c3d91906122ca565b905083600860003373ffffffffffffffffffffffffffffffffffffffff1673ffffffffffffffffffffffffffffffffffffffff1681526020019081526020016000206000828254610c8e91906122fb565b9250508190555083600a6000828254610ca791906122fb565b925050819055508660056000828254610cc091906122fb565b925050819055508260046000828254610cd991906122fb565b925050819055508160076000828254610cf291906122fb565b925050819055508060066000828254610d0b91906122fb565b92505081905550600554600454610d229190612259565b600d819055503373ffffffffffffffffffffffffffffffffffffffff166108fc8389610d4e919061232f565b9081150290604051600060405180830381858888f19350505050158015610d79573d6000803e3d6000fd5b50600360009054906101000a900473ffffffffffffffffffffffffffffffffffffffff1673ffffffffffffffffffffffffffffffffffffffff1663a9059cbb338386610dc5919061232f565b6040518363ffffffff1660e01b8152600401610de292919061243b565b6020604051808303816000875af1158015610e01573d6000803e3d6000fd5b505050506040513d601f19601f82011682018060405250810190610e25919061249c565b610e64576040517f08c379a0000000000000000000000000000000000000000000000000000000008152600401610e5b90612515565b60405180910390fd5b6000600860003373ffffffffffffffffffffffffffffffffffffffff1673ffffffffffffffffffffffffffffffffffffffff1681526020019081526020016000205403610eb557610eb433611b81565b5b50505050505050565b60008060009054906101000a900473ffffffffffffffffffffffffffffffffffffffff16905090565b6000600554118015610efb57506000600454115b610f3a576040517f08c379a0000000000000000000000000000000000000000000000000000000008152600401610f3190612b10565b60405180910390fd5b60003411610f7d576040517f08c379a0000000000000000000000000000000000000000000000000000000008152600401610f7490612b7c565b60405180910390fd5b6000349050610f8c8383611b5b565b610fcb576040517f08c379a0000000000000000000000000000000000000000000000000000000008152600401610fc290612914565b60405180910390fd5b600060055460045483610fde9190612259565b610fe891906122ca565b905080600360009054906101000a900473ffffffffffffffffffffffffffffffffffffffff1673ffffffffffffffffffffffffffffffffffffffff166370a08231336040518263ffffffff1660e01b81526004016110469190611fb2565b602060405180830381865afa158015611063573d6000803e3d6000fd5b505050506040513d601f19601f8201168201806040525081019061108791906126fa565b10156110c8576040517f08c379a00000000000000000000000000000000000000000000000000000000081526004016110bf90612be8565b60405180910390fd5b80600360009054906101000a900473ffffffffffffffffffffffffffffffffffffffff1673ffffffffffffffffffffffffffffffffffffffff1663dd62ed3e33306040518363ffffffff1660e01b8152600401611126929190612c08565b602060405180830381865afa158015611143573d6000803e3d6000fd5b505050506040513d601f19601f8201168201806040525081019061116791906126fa565b10156111a8576040517f08c379a000000000000000000000000000000000000000000000000000000000815260040161119f90612c7d565b60405180910390fd5b600360009054906101000a900473ffffffffffffffffffffffffffffffffffffffff1673ffffffffffffffffffffffffffffffffffffffff166323b872dd3330846040518463ffffffff1660e01b815260040161120793929190612825565b6020604051808303816000875af1158015611226573d6000803e3d6000fd5b505050506040513d601f19601f8201168201806040525081019061124a919061249c565b611289576040517f08c379a000000000000000000000000000000000000000000000000000000000815260040161128090612515565b60405180910390fd5b6000600554600a548461129c9190612259565b6112a691906122ca565b905080600860003373ffffffffffffffffffffffffffffffffffffffff1673ffffffffffffffffffffffffffffffffffffffff16815260200190815260200160002060008282546112f7919061232f565b9250508190555080600a6000828254611310919061232f565b925050819055508260056000828254611329919061232f565b925050819055508160046000828254611342919061232f565b925050819055506005546004546113599190612259565b600d8190555061136833611c27565b6113d0576009339080600181540180825580915050600190039060005260206000200160009091909190916101000a81548173ffffffffffffffffffffffffffffffffffffffff021916908373ffffffffffffffffffffffffffffffffffffffff1602179055505b5050505050565b6000821161141a576040517f08c379a000000000000000000000000000000000000000000000000000000000815260040161141190612ce9565b60405180910390fd5b600060045411801561142e57506000600554115b61146d576040517f08c379a00000000000000000000000000000000000000000000000000000000081526004016114649061220a565b60405180910390fd5b81600360009054906101000a900473ffffffffffffffffffffffffffffffffffffffff1673ffffffffffffffffffffffffffffffffffffffff166370a08231336040518263ffffffff1660e01b81526004016114c99190611fb2565b602060405180830381865afa1580156114e6573d6000803e3d6000fd5b505050506040513d601f19601f8201168201806040525081019061150a91906126fa565b101561154b576040517f08c379a000000000000000000000000000000000000000000000000000000000815260040161154290612d55565b60405180910390fd5b81600360009054906101000a900473ffffffffffffffffffffffffffffffffffffffff1673ffffffffffffffffffffffffffffffffffffffff1663dd62ed3e33306040518363ffffffff1660e01b81526004016115a9929190612c08565b602060405180830381865afa1580156115c6573d6000803e3d6000fd5b505050506040513d601f19601f820116820180604052508101906115ea91906126fa565b101561162b576040517f08c379a000000000000000000000000000000000000000000000000000000000815260040161162290612c7d565b60405180910390fd5b6000600c54600b548461163e9190612259565b61164891906122ca565b90506000818461165891906122fb565b905060008160045461166a919061232f565b600554836116789190612259565b61168291906122ca565b90506000811180156116a1575060018161169c919061232f565b600554115b6116e0576040517f08c379a00000000000000000000000000000000000000000000000000000000081526004016116d790612dc1565b60405180910390fd5b600082600e54836116f19190612259565b6116fb91906122ca565b905084811115611740576040517f08c379a000000000000000000000000000000000000000000000000000000000815260040161173790612e2d565b60405180910390fd5b600360009054906101000a900473ffffffffffffffffffffffffffffffffffffffff1673ffffffffffffffffffffffffffffffffffffffff166323b872dd3330896040518463ffffffff1660e01b815260040161179f93929190612825565b6020604051808303816000875af11580156117be573d6000803e3d6000fd5b505050506040513d601f19601f820116820180604052508101906117e2919061249c565b611821576040517f08c379a000000000000000000000000000000000000000000000000000000000815260040161181890612515565b60405180910390fd5b8260046000828254611833919061232f565b92505081905550836006600082825461184c919061232f565b92505081905550816005600082825461186591906122fb565b9250508190555060055460045461187c9190612259565b600d819055503373ffffffffffffffffffffffffffffffffffffffff166108fc839081150290604051600060405180830381858888f193505050501580156118c8573d6000803e3d6000fd5b50505050505050565b600080600b54600c54915091509091565b6118ea611a19565b600073ffffffffffffffffffffffffffffffffffffffff168173ffffffffffffffffffffffffffffffffffffffff1603611959576040517f08c379a000000000000000000000000000000000000000000000000000000000815260040161195090612ebf565b60405180910390fd5b61196281611a97565b50565b6001805461197290612f0e565b80601f016020809104026020016040519081016040528092919081815260200182805461199e90612f0e565b80156119eb5780601f106119c0576101008083540402835291602001916119eb565b820191906000526020600020905b8154815290600101906020018083116119ce57829003601f168201915b505050505081565b600360009054906101000a900473ffffffffffffffffffffffffffffffffffffffff1681565b611a21611cd5565b73ffffffffffffffffffffffffffffffffffffffff16611a3f610ebe565b73ffffffffffffffffffffffffffffffffffffffff1614611a95576040517f08c379a0000000000000000000000000000000000000000000000000000000008152600401611a8c90612f8b565b60405180910390fd5b565b60008060009054906101000a900473ffffffffffffffffffffffffffffffffffffffff169050816000806101000a81548173ffffffffffffffffffffffffffffffffffffffff021916908373ffffffffffffffffffffffffffffffffffffffff1602179055508173ffffffffffffffffffffffffffffffffffffffff168173ffffffffffffffffffffffffffffffffffffffff167f8be0079c531659141344cd1fd0a4f28419497f9722a3daafe3b4186f6b6457e060405160405180910390a35050565b600080611b66611cdd565b9050838110158015611b785750828111155b91505092915050565b60005b600980549050811015611c23578173ffffffffffffffffffffffffffffffffffffffff1660098281548110611bbc57611bbb612fab565b5b9060005260206000200160009054906101000a900473ffffffffffffffffffffffffffffffffffffffff1673ffffffffffffffffffffffffffffffffffffffff1603611c1057611c0b81611d01565b611c23565b8080611c1b90612fda565b915050611b84565b5050565b600080600090505b600980549050811015611cca578273ffffffffffffffffffffffffffffffffffffffff1660098281548110611c6757611c66612fab565b5b9060005260206000200160009054906101000a900473ffffffffffffffffffffffffffffffffffffffff1673ffffffffffffffffffffffffffffffffffffffff1603611cb7576001915050611cd0565b8080611cc290612fda565b915050611c2f565b50600090505b919050565b600033905090565b6000600454600e54600554611cf29190612259565b611cfc91906122ca565b905090565b6009805490508110611d48576040517f08c379a0000000000000000000000000000000000000000000000000000000008152600401611d3f90613094565b60405180910390fd5b60096001600980549050611d5c91906122fb565b81548110611d6d57611d6c612fab565b5b9060005260206000200160009054906101000a900473ffffffffffffffffffffffffffffffffffffffff1660098281548110611dac57611dab612fab565b5b9060005260206000200160006101000a81548173ffffffffffffffffffffffffffffffffffffffff021916908373ffffffffffffffffffffffffffffffffffffffff1602179055506009805480611e0657611e056130b4565b5b6001900381819060005260206000200160006101000a81549073ffffffffffffffffffffffffffffffffffffffff0219169055905550565b6000819050919050565b611e5181611e3e565b82525050565b6000604082019050611e6c6000830185611e48565b611e796020830184611e48565b9392505050565b600080fd5b611e8e81611e3e565b8114611e9957600080fd5b50565b600081359050611eab81611e85565b92915050565b600060208284031215611ec757611ec6611e80565b5b6000611ed584828501611e9c565b91505092915050565b60008060408385031215611ef557611ef4611e80565b5b6000611f0385828601611e9c565b9250506020611f1485828601611e9c565b9150509250929050565b600080600060608486031215611f3757611f36611e80565b5b6000611f4586828701611e9c565b9350506020611f5686828701611e9c565b9250506040611f6786828701611e9c565b9150509250925092565b600073ffffffffffffffffffffffffffffffffffffffff82169050919050565b6000611f9c82611f71565b9050919050565b611fac81611f91565b82525050565b6000602082019050611fc76000830184611fa3565b92915050565b611fd681611f91565b8114611fe157600080fd5b50565b600081359050611ff381611fcd565b92915050565b60006020828403121561200f5761200e611e80565b5b600061201d84828501611fe4565b91505092915050565b600081519050919050565b600082825260208201905092915050565b60005b83811015612060578082015181840152602081019050612045565b60008484015250505050565b6000601f19601f8301169050919050565b600061208882612026565b6120928185612031565b93506120a2818560208601612042565b6120ab8161206c565b840191505092915050565b600060208201905081810360008301526120d0818461207d565b905092915050565b6000819050919050565b60006120fd6120f86120f384611f71565b6120d8565b611f71565b9050919050565b600061210f826120e2565b9050919050565b600061212182612104565b9050919050565b61213181612116565b82525050565b600060208201905061214c6000830184612128565b92915050565b7f4d7573742073656e642045544800000000000000000000000000000000000000600082015250565b6000612188600d83612031565b915061219382612152565b602082019050919050565b600060208201905081810360008301526121b78161217b565b9050919050565b7f52657365727665732063616e6e6f742062652030000000000000000000000000600082015250565b60006121f4601483612031565b91506121ff826121be565b602082019050919050565b60006020820190508181036000830152612223816121e7565b9050919050565b7f4e487b7100000000000000000000000000000000000000000000000000000000600052601160045260246000fd5b600061226482611e3e565b915061226f83611e3e565b925082820261227d81611e3e565b915082820484148315176122945761229361222a565b5b5092915050565b7f4e487b7100000000000000000000000000000000000000000000000000000000600052601260045260246000fd5b60006122d582611e3e565b91506122e083611e3e565b9250826122f0576122ef61229b565b5b828204905092915050565b600061230682611e3e565b915061231183611e3e565b92508282039050818111156123295761232861222a565b5b92915050565b600061233a82611e3e565b915061234583611e3e565b925082820190508082111561235d5761235c61222a565b5b92915050565b7f496e73756666696369656e7420746f6b656e206c697175696469747900000000600082015250565b6000612399601c83612031565b91506123a482612363565b602082019050919050565b600060208201905081810360008301526123c88161238c565b9050919050565b7f536c6970706167653a20746f6b656e206f757470757420746f6f206c6f770000600082015250565b6000612405601e83612031565b9150612410826123cf565b602082019050919050565b60006020820190508181036000830152612434816123f8565b9050919050565b60006040820190506124506000830185611fa3565b61245d6020830184611e48565b9392505050565b60008115159050919050565b61247981612464565b811461248457600080fd5b50565b60008151905061249681612470565b92915050565b6000602082840312156124b2576124b1611e80565b5b60006124c084828501612487565b91505092915050565b7f546f6b656e207472616e73666572206661696c65640000000000000000000000600082015250565b60006124ff601583612031565b915061250a826124c9565b602082019050919050565b6000602082019050818103600083015261252e816124f2565b9050919050565b7f4e6f204c50207368617265730000000000000000000000000000000000000000600082015250565b600061256b600c83612031565b915061257682612535565b602082019050919050565b6000602082019050818103600083015261259a8161255e565b9050919050565b7f546f6b656e20726573657276657320776173206e6f7420300000000000000000600082015250565b60006125d7601883612031565b91506125e2826125a1565b602082019050919050565b60006020820190508181036000830152612606816125ca565b9050919050565b7f45544820726573657276657320776173206e6f7420302e000000000000000000600082015250565b6000612643601783612031565b915061264e8261260d565b602082019050919050565b6000602082019050818103600083015261267281612636565b9050919050565b7f4e6565642065746820746f2063726561746520706f6f6c2e0000000000000000600082015250565b60006126af601883612031565b91506126ba82612679565b602082019050919050565b600060208201905081810360008301526126de816126a2565b9050919050565b6000815190506126f481611e85565b92915050565b6000602082840312156127105761270f611e80565b5b600061271e848285016126e5565b91505092915050565b7f4e6f74206861766520656e6f75676820746f6b656e7320746f2063726561746560008201527f2074686520706f6f6c0000000000000000000000000000000000000000000000602082015250565b6000612783602983612031565b915061278e82612727565b604082019050919050565b600060208201905081810360008301526127b281612776565b9050919050565b7f4e65656420746f6b656e7320746f2063726561746520706f6f6c2e0000000000600082015250565b60006127ef601b83612031565b91506127fa826127b9565b602082019050919050565b6000602082019050818103600083015261281e816127e2565b9050919050565b600060608201905061283a6000830186611fa3565b6128476020830185611fa3565b6128546040830184611e48565b949350505050565b7f496e76616c696420616d6f756e74000000000000000000000000000000000000600082015250565b6000612892600e83612031565b915061289d8261285c565b602082019050919050565b600060208201905081810360008301526128c181612885565b9050919050565b7f536c6970706167653a2072617465206f7574206f6620626f756e647300000000600082015250565b60006128fe601c83612031565b9150612909826128c8565b602082019050919050565b6000602082019050818103600083015261292d816128f1565b9050919050565b7f4e6f7420656e6f756768204c5020736861726573000000000000000000000000600082015250565b600061296a601483612031565b915061297582612934565b602082019050919050565b600060208201905081810360008301526129998161295d565b9050919050565b7f43616e6e6f74206c65617665206c657373207468616e20312045544820696e2060008201527f74686520706f6f6c000000000000000000000000000000000000000000000000602082015250565b60006129fc602883612031565b9150612a07826129a0565b604082019050919050565b60006020820190508181036000830152612a2b816129ef565b9050919050565b7f43616e6e6f74206c65617665206c657373207468616e203120746f6b656e206960008201527f6e2074686520706f6f6c00000000000000000000000000000000000000000000602082015250565b6000612a8e602a83612031565b9150612a9982612a32565b604082019050919050565b60006020820190508181036000830152612abd81612a81565b9050919050565b7f506f6f6c206e6f74206372656174656420796574000000000000000000000000600082015250565b6000612afa601483612031565b9150612b0582612ac4565b602082019050919050565b60006020820190508181036000830152612b2981612aed565b9050919050565b7f4d7573742070726f766964652045544800000000000000000000000000000000600082015250565b6000612b66601083612031565b9150612b7182612b30565b602082019050919050565b60006020820190508181036000830152612b9581612b59565b9050919050565b7f496e73756666696369656e7420746f6b656e7300000000000000000000000000600082015250565b6000612bd2601383612031565b9150612bdd82612b9c565b602082019050919050565b60006020820190508181036000830152612c0181612bc5565b9050919050565b6000604082019050612c1d6000830185611fa3565b612c2a6020830184611fa3565b9392505050565b7f417070726f766520746f6b656e73206669727374000000000000000000000000600082015250565b6000612c67601483612031565b9150612c7282612c31565b602082019050919050565b60006020820190508181036000830152612c9681612c5a565b9050919050565b7f4d7573742073776170203e203020746f6b656e73000000000000000000000000600082015250565b6000612cd3601483612031565b9150612cde82612c9d565b602082019050919050565b60006020820190508181036000830152612d0281612cc6565b9050919050565b7f496e73756666696369656e7420746f6b656e2062616c616e6365000000000000600082015250565b6000612d3f601a83612031565b9150612d4a82612d09565b602082019050919050565b60006020820190508181036000830152612d6e81612d32565b9050919050565b7f496e73756666696369656e74206c697175696469747900000000000000000000600082015250565b6000612dab601683612031565b9150612db682612d75565b602082019050919050565b60006020820190508181036000830152612dda81612d9e565b9050919050565b7f536c6970706167653a20455448206f757470757420746f6f206c6f7700000000600082015250565b6000612e17601c83612031565b9150612e2282612de1565b602082019050919050565b60006020820190508181036000830152612e4681612e0a565b9050919050565b7f4f776e61626c653a206e6577206f776e657220697320746865207a65726f206160008201527f6464726573730000000000000000000000000000000000000000000000000000602082015250565b6000612ea9602683612031565b9150612eb482612e4d565b604082019050919050565b60006020820190508181036000830152612ed881612e9c565b9050919050565b7f4e487b7100000000000000000000000000000000000000000000000000000000600052602260045260246000fd5b60006002820490506001821680612f2657607f821691505b602082108103612f3957612f38612edf565b5b50919050565b7f4f776e61626c653a2063616c6c6572206973206e6f7420746865206f776e6572600082015250565b6000612f75602083612031565b9150612f8082612f3f565b602082019050919050565b60006020820190508181036000830152612fa481612f68565b9050919050565b7f4e487b7100000000000000000000000000000000000000000000000000000000600052603260045260246000fd5b6000612fe582611e3e565b91507fffffffffffffffffffffffffffffffffffffffffffffffffffffffffffffffff82036130175761301661222a565b5b600182019050919050565b7f73706563696669656420696e646578206973206c6172676572207468616e207460008201527f6865206e756d626572206f66206c707300000000000000000000000000000000602082015250565b600061307e603083612031565b915061308982613022565b604082019050919050565b600060208201905081810360008301526130ad81613071565b9050919050565b7f4e487b7100000000000000000000000000000000000000000000000000000000600052603160045260246000fdfea2646970667358221220128615a47471a25c1325895328e951d2ac6420cb6066e8fa5ad260cc98ff069964736f6c63430008110033",
  "linkReferences": {},
  "deployedLinkReferences": {}
}